:020000040800F2
:1000000000000220C941000815420008792B0008B1
:100010007F2B0008852B00088B2B000800000000B8
:10002000000000000000000000000000E5050008DE
:1000300015420008000000007D0600088D0600083B
:100040001542000815420008154200081542000834
:100050001542000815420008154200081542000824
:100060001542000815420008154200081542000814
:100070001542000815420008154200081542000804
:1000800015420008154200081542000859450008AD
:100090004D450008154200085D450008154200085E
:1000A00015420008154200081542000815420008D4
:1000B00015420008154200081542000815420008C4
:1000C00015420008154200081542000815420008B4
:1000D00015420008154200081542000815420008A4
:1000E0001542000815420008154200081542000894
:1000F0001542000815420008154200081542000884
:100100001542000815420008154200081542000873
:100110001542000815420008154200081542000863
:100120001542000815420008154200081542000853
:100130001542000800000000000000006D450008A6
:100140006145000815420008714500081542000885
:100150001542000815420008154200081542000823
:100160001542000815420008154200081542000813
:100170001542000815420008154200080000000062
:100180000000000015420008000000000000000010
:1001900015420008000000000000000015420008A1
:1001A00000000000000000000000000015420008F0
:1001B00015420008154200081542000815420008C3
:1001C0001542000810B5054C237833B9044B13B120
:1001D0000448AFF300800123237010BDA00C002061
:1001E00000000000AC62010808B5034B1BB10349D5
:1001F0000348AFF3008008BD00000000A40C0020FD
:10020000AC620108A3F5803A704700BF174B002B82
:1002100008BF134B9D46FFF7F5FF00218B460F46A5
:100220001348144A121A12F041FD0E4B002B00D055
:1002300098470D4B002B00D0984700200021040068
:100240000D000D48002802D00C4803F015FC12F0F8
:1002500089F82000290001F051FD03F011FE00BFD4
:100260000000080000000000591C000800000220E7
:10027000A00C002030960020793A00080000000011
:10028000014B02681A607047C40C002008B560B1C9
:1002900000220649064806F097FA024628B1BDE852
:1002A00008400448202102F08BBF08BDC40C002088
:1002B000BC0C00204044010800B5C5B01C22002140
:1002C0000BA812F0F3FC05210BA802F0F4F9424B45
:1002D0000193424B424A00930021424B012006F019
:1002E000FFFF06A806F058FF0022114606AB12A831
:1002F00006F022FE024620B13B483C2102F060FF9E
:10030000FEE73A4A3A4912AB04A806F067FE0246F5
:1003100020B13548402102F053FFFEE707F002FD0F
:10032000344B024604A9344806F094FE024620B13C
:100330002D48432102F044FFFEE707F0F3FC2F4B6A
:10034000024604A92E4806F0B9FE024620B126480E
:100350004A2102F035FFFEE72A4B009312A91CA3A5
:10036000D3E9002303A806F0DDFE024620B11E48B3
:10037000532102F025FFFEE7022206AB14A924A8B0
:1003800006F03AFB024620B117485B2102F018FF45
:10039000FEE703A924A806F0D3FB024620B11248C9
:1003A0005C2102F00DFFFEE7174A0090174B14493D
:1003B00024A806F091FB024620B10B485D2102F013
:1003C000FFFEFEE7124B186024A806F071FDFBE764
:1003D00000CA9A3B0000000005050008F10400086F
:1003E000A5040008ED0400086B440108F94C01085D
:1003F00094440108A2440108BC0C0020B344010845
:10040000C80C00208D020008C00C002081020008EA
:10041000C40C002010B5044601F0D9FF204610BDE1
:1004200010B5034B0360044601F0FAFE204610BDF0
:1004300004490108A0F1E400F2E700BF10B50B4C3D
:100440000B4923680B480122194402F0BAF860B145
:100450002368094A01331168C3F30A038B422360FE
:1004600002BF0133C3F30A03136010BDB8150020A7
:10047000CC0C0020CC140020B415002003681847D1
:100480001FB50C466846002103F04CFDDDE9002352
:10049000C4E90023029B4FF47A7253430020A36007
:1004A00004B010BD7FB50E484FF4E13101F024FED9
:1004B0000B4801230022082101F032FE09490A4BB2
:1004C00002930022CDE90322CDE9001202AB05918F
:1004D00003480ECB01F05DFE012007B05DF804FB80
:1004E000CC1400207D0400083D0400080120704762
:1004F00008B5034802F03FF820EAE07008BD00BFED
:10050000CC1400202DE9F74F1948DFF86880DFF898
:1005100068A0DFF868B01C4617460E4601F061FF80
:100520004FF47A735C4300234FEAE4791A461D4680
:10053000A34272EB090317DABD4215D2D8F8003096
:10054000DAF80020934208D01BF8032072550133DB
:10055000C3F30A03C8F8003001350549684601F0C5
:1005600073FFDDE90032E3E7284603B0BDE8F08F12
:10057000C0150020B4150020B8150020CC0C0020B8
:1005800010B50446FFF74CFF2046E82103F09BFC22
:10059000204610BDA0F1E400F2E7000010B50C4CBD
:1005A0004FF4165303220221204602F021F8204680
:1005B000084C094A094903F05DFA204601F081FF21
:1005C0002046054A0649BDE8104003F053BA00BF73
:1005D000CC140020C0150020C80100202104000810
:1005E000150400081EF0040F0CBFEFF30880EFF3B2
:1005F0000980816911F8021C91BB01B590E80F10C8
:10060000E047BDE800508CE80300244B93E8060067
:10061000914208BF704741B91EF0100F10D1204918
:10062000086820F0010008600AE02CE9F00F1EF0D5
:10063000100F08BF2CED108AC1F838C081F822E0F5
:100640001A6092F82210906B61F0FF0E1EF0100FEE
:1006500008BFB0EC108AB0E8F00F80F3098870474B
:10066000104A13689942FAD801B552F821C00FC850
:10067000E047BDE80050CCF80000704701B500F03D
:1006800083FEBDE80140EFF3098CBEE701B500F041
:1006900043FEBDE80140EFF3098CB6E7E00100201E
:1006A00034EF00E080450108EFF310832BB9EFF33E
:1006B0001180003818BF01207047012070470000EA
:1006C00070B5484C217A012900F08A8031B14FF091
:1006D000FF3001F007FC4FF0FF3070BD424D9C220F
:1006E00004F1080012F0E2FAD5E90B61EB68E3656A
:1006F0002B8AA4F854303046AB68236400F0FEF82F
:1007000008B1C4F88060D5E90561304600F0F6F81C
:1007100008B9D4F880606667D5E90761304600F013
:10072000EDF808B9D4F88060A667D5E909613046CC
:1007300000F0E4F808B9D4F88060E6676E6B3EB16B
:10074000D6E902233168304600F042F9C4F88460EB
:10075000AE6B3EB1D6E902233168304600F038F97D
:10076000C4F88860EE6B3EB1D6E9022331683046AA
:1007700000F02EF9C4F88C602E6C3EB1D6E902234D
:100780003168304600F024F9C4F890606E6C3EB1D8
:10079000D6E902233168304600F01AF9C4F89460B3
:1007A000AE6C3EB1D6E902233168304600F010F954
:1007B000C4F89860EE6C3EB1D6E902233168304649
:1007C00000F006F9C4F89C602D6D3DB1D5E9022317
:1007D0002968284600F0FCF8C4F8A05001232372D1
:1007E00000207AE7CC0100201845010870B5264D9D
:1007F0002B7A012B07D06FF0060001F073FB4FF04E
:10080000FF34204670BD01F03BF910B94FF0FF30C6
:10081000F3E71E4A1E4E1F497068FF2382F82230FC
:1008200092F82230D26863F0FF03DB4314BFB3FABF
:1008300083F32023C3F12003C2F30222934298BF23
:10084000531CFE2202FA03F3104ADBB2D37701F005
:10085000C7F904460028D9D101F0FAF9286101F05E
:10086000DFF90D4800F0D6FE00F04EFF336813F0BC
:10087000010F4FF0020303D083F314882B72C0E7FB
:10088000032282F31488F9E7CC01002000ED00E098
:10089000184501088D060008E80100207047000097
:1008A00008B5FFF7FBFFEFF3058333B16FF00500E9
:1008B00001F018FB6FF0050008BDFFF7F5FE0028FA
:1008C000F4D1DFF808C000DFF6E700BFC10600087A
:1008D00008B5EFF3058333B16FF0050001F002FBBB
:1008E0006FF0050008BDFFF7DFFE0028F4D1DFF848
:1008F00008C000DFF6E700BFED07000810B598B1AB
:1009000040EA010313F007030ED117290AD9016049
:10091000083910220C18846042600B5081684A60CC
:10092000C3600123184610BD0023FBE7F0B5034662
:1009300070B369B332F003002AD10F3121F00701FF
:1009400003F10806344636686568301B25F0030558
:10095000401B814203D930680028F3D1F0BD5F68A5
:100960001D680F445F602B44083B5868874288BF6E
:100970005F6063680A431BB9626004F10800EDE739
:1009800023F00303E018E650426020600830E5E7FA
:100990000020E3E710B580B1C1B1A1F1080400F176
:1009A00008030022A34209D1596821F003044168D9
:1009B000091B41603AB95A60012010BD19681A46F6
:1009C00021B10B46EEE71B681360F5E70846F4E734
:1009D00030B5C0B189B1C2B1CBB10024C0E9014288
:1009E00002FB01F41D190160C360436105611846F3
:1009F000013904D1A21A99500121084630BD851849
:100A000005602846F4E70146F7E71146F5E7194681
:100A1000F3E710B50346A8B100F1140252E8000F45
:100A200010B9BFF32F8F04E0016842E8001404B14D
:100A3000F4E738B1043353E8002F511C43E80014A5
:100A400004B1F8E710BD30B5F0B1C3688B421BD8D4
:100A500003698B4218D900F114031A680A60BFF3C6
:100A60005F8F53E8002F0C689442F6D143E80015DD
:100A700005B1F2E7043050E8003F5A1E40E800217B
:100A800001B1F8E7002030BD6FF00300FBE7EFF3A2
:100A900010832BB9EFF31180003818BF0120704785
:100AA00001207047D1E9013223B19A608A681AB1F6
:100AB00053607047C262F9E7036370472DE9F84F4E
:100AC0008846074600B131B96FF00301002001F0FC
:100AD0001BFA002477E0CE1C26F003060C36B0FA91
:100AE00080F104D0B6FA86F30B441F2BECDD06FB35
:100AF00007FAF2B194683CB1A30702D1D368332B53
:100B000005D86FF00801E1E7D368002BF9D1D2E9ED
:100B10000453D2F800903DB115F0030B01D19A4572
:100B200054D96FF00901D1E7002BFAD11CB19B46D3
:100B30000CE091461546274BD3F8A000D8B1FFF73B
:100B400068FF0446A0B14FF0010B35BB214B0022DA
:100B5000D86F5146FFF7EAFE0546C0B9BBF1000F5A
:100B600006D01C4BD3F8A000214658B1FFF76BFF0D
:100B70006FF00401AAE7D3F8800001223421FFF7C7
:100B8000D5FEDEE7D3F88000FFF704FFF0E752461A
:100B9000002112F08BF84BF0020BFA232370002394
:100BA000C4E90983C4E90B33A36032462B4684F8B9
:100BB00002B0C4F80490394604F10C00FFF708FFB6
:100BC000044B054A1A672046BDE8F88F002CE4D193
:100BD000B1E700BFCC010020690C000810B500F19E
:100BE000280353E8002F12B9BFF32F8F04E0511EE2
:100BF00043E8001404B1F4E70AB9002010BDC06A4C
:100C000001220028F9D0811CD1E84F3FC1E8442FD0
:100C100004B1F9E7DBB2002BF0D08068F1E7036B99
:100C200030B5E3B1CD780024DA78AA420FD31A4662
:100C3000C1E901248AB19160A4B16160283050E813
:100C4000003F5A1C40E8002101B1F8E730BD5A6866
:100C50001C46002AECD01346E6E7C162ECE7C1E986
:100C60000133C1620163E9E7F8B5877804468FB3C1
:100C7000C568014600272846FFF714FF277005F1D5
:100C80000C042046FFF7DFFEAB68002B48D020465F
:100C9000FFF7BFFE0446002842D0284600F0BAFC09
:100CA0003A460646394600F065FD304600F00EFD36
:100CB0006A6A8168064604F10C0011F0E1FEF9232E
:100CC0002370A770F368E37021462846BDE8F8401A
:100CD000FFF7A5BF8568AB68002BF5D05B78832B49
:100CE000F2D1284600F096FC3A460646394600F016
:100CF00041FD304600F0EAFC06466A6A806804F16D
:100D00000C0111F0BDFEF3680BB1E2781A700023FC
:100D10002370214605F10C00BDE8F840FFF793BEB3
:100D2000F8BD00002DE9F0410C46174698460546EF
:100D300018B10378FA2B00D141B928466FF00301AE
:100D400001F0E2F86FF00300BDE8F0818368C3B101
:100D50005B78832B15D100F05DFC01220646002153
:100D600000F008FD304600F0B1FC06466A6A806873
:100D7000214611F085FEF0680028E5D007700020BC
:100D8000E2E705F10C00FFF744FE064670B121468C
:100D90006A6A0C3011F074FE0024F9233370B470C9
:100DA000F77031462846FFF73AFFE8E7B8F1000F41
:100DB00010D04146932000F0F1FD40B1074B28468A
:100DC000596900F015FCEFF30983C3E902476FF09E
:100DD0000100B9E76FF00200B6E700BFCC010020C8
:100DE0002DE9F0410F4615469846044618B10378A0
:100DF000FA2B00D141B920466FF0030101F084F8CD
:100E00006FF00300BDE8F081FFF7E8FE064600281A
:100E10003AD001462046FFF745FE626A06F10C0112
:100E2000384611F02DFE0DB1F3782B70002504F13A
:100E30000C07357031463846FFF705FEA3680BB93D
:100E40000020DFE73846FFF7E4FD06460028F7D02C
:100E5000204600F0DFFB29460746012200F08AFC0D
:100E6000384600F033FC626A8168074606F10C00E0
:100E700011F006FEF9233370B570FB68F37031464C
:100E80002046FFF7CCFEDBE7B8F1000F10D041465B
:100E9000832000F083FD40B1074B2046596900F0E4
:100EA000A7FBEFF30983C3E902756FF00100A9E71F
:100EB0006FF00200A6E700BFCC01002010B5044689
:100EC000EFF3058333B100206FF0050101F01CF84A
:100ED000002010BDFFF7DBFD0028F4D1DFF808C0CB
:100EE000204600DFF5E700BFBD0A00082DE9F0410C
:100EF00006460F4690461C46EFF305834BB196B964
:100F000030466FF0030100F0FFFF6FF00300BDE813
:100F1000F081FFF7BCFD0028F1D1DFF84CC030466E
:100F2000234600DFF3E73378FA2BE9D1002FE7D02F
:100F3000002CE5D106F10C00FFF76BFD054680B1F2
:100F4000726A39460C3011F09BFDF9232846C5E939
:100F500001762B70AC7085F8038000F05DFA2046B6
:100F6000D5E76FF00200D2E7250D0008F8B504467A
:100F70000F4616461D46EFF3058343B18CB9204654
:100F80006FF0030100F0C0FF6FF00300F8BDFFF742
:100F90007EFD0028F2D1DFF848C020462B4600DF56
:100FA000F4E72378FA2BEAD1002FE8D0002DE6D120
:100FB0002046FFF713FE054670B100F10C01626A8E
:100FC000384611F05DFD0EB1EB7833702846EC60C9
:100FD00000F022FA0020D9E76FF00200D6E700BF48
:100FE000E10D0008EFF310832BB9EFF31180003807
:100FF00018BF0120704701207047000070B5A8B3EA
:101000008468D0E900566CB114F0030302D1C268C1
:101010001B2A1AD86FF00801002000F06FFF00248F
:10102000204670BDC368002BF4D1124BD3F8940056
:1010300030B9D3F8800001221C21FFF777FC01E0D2
:10104000FFF7E7FC044660B10123F522A3700023FB
:10105000C4E90233C4E904332270E6706560237684
:10106000DEE76FF0040100F049FFD9E705460646C8
:10107000DBE700BFCC010020284B70B55D6904465A
:101080000E4635B96FF0070100F038FF4FF0FF3022
:1010900070BD10B10378F52B07D020466FF0030127
:1010A00000F02CFF6FF00300F2E7037E53B9C0E9B4
:1010B0000353EB6A436103B11861EC6201232376A9
:1010C0000020E5E7C278D1070DD5C168A9420AD151
:1010D000FF2B06D16FF00F0100F010FF6FF0020040
:1010E000D6E70133EBE7002EF8D093070AD5E06886
:1010F00095F9203090F920209A4203DA80F82030C8
:1011000000F09AFA3146532000F048FC18B1294605
:10111000204600F06DFA6FF00100B9E7CC01002025
:1011200038B52F4B5A69044632B96FF0070100F009
:10113000E5FE4FF0FF3038BD10B10378F52B07D036
:1011400020466FF0030100F0D9FE6FF00300F2E7D4
:10115000037E33B96FF00E0100F0D0FE6FF0020095
:10116000E9E7C168914202D06FF00D01F4E7013B5D
:10117000DBB2037633BB43690BB1016919612169A5
:1011800011B34B61E3789B0705D592F92110D36A1F
:10119000E3B982F82010A3688BB1204600F03AFA38
:1011A00000220546114600F0E5FA00232361EB6AB0
:1011B000E560636103B11C610123EC6223760020CA
:1011C00000F0ACFA0020B6E7D362DBE7986820B104
:1011D00090F920008142B8BF01465B69D8E700BFA3
:1011E000CC0100202DE9F0410446002601270CB96E
:1011F000BDE8F081E378D4F814801B0712D5A3680A
:1012000026767BB1204600F005FA002205461146FD
:1012100000F0B0FAEB6A6361C4E9035603B11C61E4
:10122000EC6227764446E2E710B4C3789B071AD5F0
:10123000C06890F92130C26A94688C4208BF8C68FB
:1012400024B194F92040A342B8BF23465269002A32
:10125000F2D190F920209A4205D080F820305DF834
:10126000044B00F0E9B95DF8044B704708B502463D
:10127000EFF3058333B100206FF0050100F03EFE6F
:10128000002008BDFFF7AEFE0028F4D1DFF808C04B
:10129000104600DFF5E700BFFD0F000808B5024665
:1012A000EFF305833BB110466FF0050100F026FE19
:1012B0006FF0050008BDFFF795FE0028F3D1DFF8B9
:1012C00008C0104600DFF5E77910000808B50246AF
:1012D000EFF305833BB110466FF0050100F00EFE01
:1012E0006FF0050008BDFFF77DFE0028F3D1DFF8A1
:1012F00008C0104600DFF5E72111000810B5D0E85E
:101300005F3F5A1C914200D80022C0E8542F04B11C
:10131000F5E798B210BD000038B51A4C00F094FC07
:10132000E3680133E360236D03B1984700F09EF951
:10133000002000F0F3F9236C1BB3A26BA1698A4271
:1013400002D0A163E3631CE0E36BB3B9237A022B01
:1013500017D1656AADB195F9201092F92030994204
:101360000FD1284600F05FF9A06B00F077F928460E
:1013700000F0CAF9236CA563E4E7013BE363002BAB
:10138000E4D038BDCC01002070B5224C04F15605E4
:1013900004F15A06B4F85410D5E85F3F13B9BFF30F
:1013A0002F8F04E05A1EC5E8502F00B1F4E79BB21E
:1013B0005BB33046FFF7A2FFE36D53F8200020B384
:1013C0000378F13B082BE5D801A252F823F000BFC7
:1013D000F513000895130008FB1300089513000887
:1013E00095130008FF130008031400089513000864
:1013F00007140008236E9847CCE7636EFBE7A36EE3
:10140000F9E7E36EF7E7236FF5E7BDE870400020EA
:1014100000F084B9CC01002070B5164C0546B4F834
:10142000541004F15602D2E85F3F994202D8BFF34C
:101430002F8F04E0581CC2E8560F06B1F3E79BB2A9
:10144000994205D829460220BDE8704000F00CBD45
:1014500004F15800FFF752FFE36D43F82050637A20
:1014600023B9054B4FF080525A6070BD0123A3721F
:10147000FBE700BFCC01002000ED00E0EFF310839C
:101480002BB9EFF31180003818BF012070470120FD
:1014900070470378F12B00D07047C068F9E700006F
:1014A00010B50A4A90F9201001234370536A1C3288
:1014B0001BB193F920408C4205DCC0E902329060F8
:1014C00003B1D86010BD1A469B68F1E7CC0100203B
:1014D000014B5869704700BFCC01002010B50023B4
:1014E000038083789A07044608D513F0100F016B28
:1014F0000E4B0FD0D3F88400FFF7A5FAA378DB07D3
:1015000012D50A4BD3F88800214638B1BDE8104007
:10151000FFF799BA586FFFF73DFAEFE7BDE81040C3
:10152000D3F88000FFF736BA10BD00BFCC01002011
:1015300008B500F0EFFCDFF810C000DF4FF0FF311E
:10154000002000F0D5FCFEE7211A000810B5C469A0
:10155000621CD0E904310AD103B1596142691AB160
:1015600013610023436101E0064A136310BD1BB100
:10157000DA6959612244DA614269002AF0D1014AEC
:10158000D362F3E7CC010020930710B502F0010409
:1015900022D400F1280384B153E8000F00EA0102CD
:1015A0008A4203D0BFF32F8F002005E020EA01021A
:1015B00043E8002404B1EFE710BD53E8000F0842F0
:1015C00003D1BFF32F8F002005E020EA010243E89A
:1015D000002404B1F1E7EFE7806A01EA00031CB1DF
:1015E0008B4218BF0020E7E7002B08BF0020E3E78D
:1015F00010B591F9202083681BB193F920409442E3
:1016000005DAC1E90230816003B1D96010BD184626
:101610009B68F1E783689A68826002B1D06000221B
:10162000DA6018467047C2682AB18368936003B1D4
:10163000DA600023C360704710B5044664B12378B4
:10164000F12B07D0FFF7EFFF01462046BDE8104021
:10165000FFF7CEBFE468F1E710BD000001230146AB
:1016600043700148FFF7C4BFE801002038B5164DAC
:10167000EC6A44B3E369013BE36123BB6378732BFA
:1016800006D009D8532B0BD003F0DF03432B0DD129
:101690002046FFF7FEFE09E003F0EF03832BF6E799
:1016A0002046FFF7F6FE2146FFF7BEFD2046FFF776
:1016B000BAFFFFF7D3FF246924B1E369002BDDD023
:1016C00000236361EC6238BDCC01002090F8223029
:1016D000826B13F0100F0CBF602020201044704765
:1016E000074B596951B10B6B8A6B934203D21A684D
:1016F000044B9A4202D0012000F0B6BB704700BFF5
:10170000CC010020A52E5AE208B502234370024BFB
:101710009861FFF7E5FF08BDCC01002010B5144B20
:1017200004461A7A5969A0B9022A1FD15C6AECB141
:1017300094F9202091F920309A4217DD2046FFF7D6
:1017400072FF0846FFF7ACFE2046BDE81040FFF7E9
:10175000DBBF022A05D190F9202091F920309A426E
:10176000EFDC2046BDE81040FFF778BF10BD00BF9A
:10177000CC01002038B505461446FFF7A7FF0160ED
:101780002846FFF7E3FE1CB1BDE83840FFF7C6BFAF
:10179000BDE83840FFF762BF10B54378332B0446ED
:1017A0000CD1416A90F82320FFF7EEFE014628B1E4
:1017B00020460022BDE81040FFF7DCBF10BD00004E
:1017C0002DE9F04F85B00391019028B96FF0030126
:1017D00000F08EFB0024BEE0002A4AD0966846B195
:1017E000B00702D1D368432B06D86FF00801002060
:1017F000EEE7D368002BF8D1D2E90449976944B1E8
:10180000610703D1B9F1000F40F0B1806FF00A0118
:10181000EDE72FB1791E372903D96FF00B01E6E709
:101820001827B9F1000F40F0A680D2E900B3029367
:1018300066BB554DD5F8880008B3FFF7EAF80646B1
:1018400000283DD04FF00108DFF83CA1002C42D128
:10185000B9F1000F1DD14D4BDAF88400D3F8549044
:10186000B8B1FFF7D6F80546E0B148F010083446A5
:1018700023E093461446182791460292D9E7D5F8FB
:10188000800001224421FFF751F8D8E74FF000080B
:10189000DAE7DAF8740022464946FFF747F80546CA
:1018A0000028E4D1B8F1000F13D0DAF8885031469F
:1018B0004DB12846FFF7C7F8002548F0020864B983
:1018C0006FF0040193E7DAF88000FFF763F82C4625
:1018D000F3E74546F1E72546344640F2F11222800F
:1018E0000022C4E90222C4E90422C4E90622C4E9B0
:1018F0000922C4E90B25A9F14002029BE3702A44A6
:10190000019BA2637FB2224AE363FD2184F8028037
:10191000C4F804B084F8207084F821706184C4F89D
:1019200034902A60194A1268530718D4A36B3422E2
:101930001846002111F0BAF9164A4263019A8263EF
:101940004FF08072C263039A0262134BCAF8603090
:101950002046FFF7E3FE204605B0BDE8F08F29F0F2
:101960000302443ACC21281D11F0A0F9DEE7002F34
:101970007FF450AF182719F0070F7FF447AFB9F184
:10198000470F3FF652AF41E7CC0100201845010850
:10199000A52E5AE2311500089917000838B51E4CDB
:1019A000237A022B34D1636A002B33D063694A1C3B
:1019B000587015D1226B00216AB94FF0FF30C3E98E
:1019C0000421D86151B10B611448FFF723FEFFF7E2
:1019D0009BFE012038BD11461269EDE72363F3E752
:1019E000E26A002012B1D569A9420BD2C3E90420F2
:1019F000D96158B10361002AE6D0D0695361411A18
:101A0000D161E1E71046491B1269EBE7E362F2E7B7
:101A10000020DFE71846DDE7CC010020E8010020C8
:101A200038B5154D2B7A022B25D16B6A1BB36C6927
:101A3000E06AFFF7D7FBA06918B100221146FFF753
:101A400099FEEFF309830D48A363FFF7E3FDFFF76A
:101A50005BFE00236B61E278D20704D42046BDE828
:101A60003840FFF73BBD04226270E3606B6BA360FC
:101A700003B1DC606C6338BDCC010020E8010020BC
:101A800038B50B4C0B48A26D0B4D0021FFF798FEAB
:101A9000636EA8624BB1E26D08480021FFF790FE2B
:101AA000A864003818BF012038BD0120FCE700BF42
:101AB00018450108611E0008CC010020A51B000884
:101AC00010B50446EFF3058333B100206FF0050134
:101AD00000F00EFA002010BDFFF7D0FC0028F4D172
:101AE000DFF808C0204600DFF5E700BFC117000897
:101AF00008B5EFF3058313B1054B586908BDFFF72F
:101B0000BDFC0028F8D1DFF80CC000DFF6E700BF0D
:101B1000CC010020D114000830B50C4D6B6C0022B4
:101B200013B11C698C420AD9C0E9022301611BB1BF
:101B30001C699860611A19612AB1D06030BD1A46DB
:101B4000091BDB68ECE76864F8E700BFCC01002004
:101B500070B5134D6C6C04B32369013B23610126FE
:101B60002369D3B9E3680BB1A2689A606B64002360
:101B7000E86C1A4604F11801FFF7B8F918B12146CC
:101B8000032000F071F9E378012B07D16169204649
:101B9000FFF7C2FF6C6C002CE2D170BD6670F9E7F4
:101BA000CC0100200B4B0C4C07B51A6E586E082167
:101BB000FFF784F9094BE0642365E06C4FF0FF33D5
:101BC00000226946FFF7D2F90028F6D1DDE900309E
:101BD0009847F2E718450108CC010020511B000886
:101BE000A8B10C4B1B68B3FBF0F00138B0F1807F5B
:101BF0000DD2094BFF2283F823204FF0E023062269
:101C00001A61586100209861044B187070474FF0BA
:101C1000FF3070478C03002000ED00E0281C0020FE
:101C2000074B1A782AB100221A70064B4FF08062D7
:101C30005A604FF0E022136943F0010313617047CB
:101C4000281C002000ED00E04FF0E0231B697047E6
:101C50004FF0FF307047000008B5094B094A1A6081
:101C6000094B9B1A094A1360094B0A4A1A600A4B2E
:101C70009B1A0A4A136000F05FF800F091F800BF69
:101C8000901C002000FC0120000002208C1C002081
:101C9000E06C00203096002000FC0120DC6C00206D
:101CA0000E4838B50E4B03600B250E4B45601C24C7
:101CB000C4608360FFF7DAFA0B4B18600B480C4BDB
:101CC000C460C0E900350B4B8360FFF7CFFA0A4BC5
:101CD0001860BDE8384010F045BB00BF5C1C002018
:101CE000E4450108701C00206C1C00202C1C002006
:101CF000F1450108401C00203C1C0020FEF7DCBA26
:101D0000024B4FF0FF311868FFF7C8BA6C1C002077
:101D1000014B1868FFF7DABA6C1C0020024B4FF039
:101D2000FF311868FFF7BABA3C1C0020014B186855
:101D3000FFF7CCBA3C1C002008B500F0CFFE0C4BDE
:101D40000C4998684FF00053C21802F160421268C3
:101D500043F8042B8B42F7D1054B4FF000529A60A9
:101D600002F01EFD03F02AFBBDE8084000F015B8A4
:101D700000ED00E0C40100207047704708B500F096
:101D800043F8FFF7F9FFFFF78BFFFFF7F6FF01F0CE
:101D9000BBFCBDE80840FFF7B1BFFEF781BD000006
:101DA000114C124B236144F6206363614423E360CA
:101DB0000F4BA360182307B5A3610E480E4B236099
:101DC00022460021FFF77CFE034628B90B4900900C
:101DD00022460B4801F0A0FCFEF77AFD00230949DA
:101DE00000931A46F5E700BFB86A0020981C00204F
:101DF000DC6A00207D1D00080B4601081046010822
:101E00001D0101802C4601081FB5064B0FCB6C4607
:101E100084E80F002046FFF729FA034B186004B04E
:101E200010BD00BF44460108206B002073B5064674
:101E30000C46154601F06AFC58B906342ABF064B19
:101E4000064953F82410002300933246284601F037
:101E500063FC02B070BD00BF084801085C47010880
:101E600008B500F071F8000007B50023421E00938A
:101E70000023042A19D8DFE802F003080C1014002C
:101E80000C490D48012201F047FC0C490C48022284
:101E9000F9E70C490C480322F5E70C490C480422E9
:101EA000F1E70C490C480522EDE702460B490C48C6
:101EB000E9E700BF54460108250102807546010884
:101EC000260102809A46010827010280CF460108B8
:101ED000280102800A4701082A0102804A470108B6
:101EE00000010280014A0146FFF7A0BF31010180D5
:101EF000014AFFF79BBF00BF32010180014AFFF793
:101F000095BF00BF33010180014AFFF78FBF00BFBB
:101F10003801018010B5FFF7EBFD034B1B6813B1CF
:101F2000BDE81040184710BD406B002008B501F017
:101F300065FA01F0C9FC01F001FD01F0DBFCBDE830
:101F4000084001F071BA000008B5024C23689847B8
:101F5000FCE700BF70020020F8B50546064655F8BC
:101F6000044B8CB90D4F386818B14FF0FF31FFF7B3
:101F700095F9346824B9284602F032F82C463560C9
:101F8000386808B1FFF7A2F9AC4204D0044905480B
:101F90008B2201F073F92046F8BD00BF206B0020B2
:101FA000204801086B480108036801221B690021D1
:101FB0001847036800221B69114618476FF0150087
:101FC00070470000C36810B52BB9044904484FF4AA
:101FD000FD7201F053F9BDE8104018478E48010822
:101FE000D54801087047416830B4034671B1D0E963
:101FF000032000F0010402B944B1451001EB600078
:102000000CB149598A58996830BC104730BC7047A8
:1020100070B500F14C06B0F9C020B0F9BE1004460E
:10202000304602F0B3FFD4E932530DB9DA070ED5CA
:102030005A1004EB6300DB0748BFA35894F8D01094
:1020400048BF5D59B4F9D220B4F9D430A847D4F8C8
:10205000B810304602F028FF224630460249BDE85B
:10206000704002F053B900BF992200082DE9F041F9
:1020700098461E4B03601E4B436000251D4B856038
:1020800016464C220446C0E90555C0E907550F46DF
:10209000C360858445634564A0F8485029460061C3
:1020A000104410F003FE40F20113A4F8BC304FF6C8
:1020B000FF732046C4E92D58C4E93155C4E93655AB
:1020C000C4F8A450A4F8BE70A4F8C060C4F8CC5002
:1020D00084F8D050A4F8D230A4F8D430C4F8E0503A
:1020E000FFF796FF2046BDE8F08100BFEC480108ED
:1020F00011200008E71F000870B50646044656F890
:102100004C3B0D461B6898473046294602F0CCFEF2
:102110002368C4F8B85020465B68BDE87040184793
:102120007FB50546044655F84C6B0193CDE9022175
:102130003668B047DDE901322846039902F0C4FE53
:1021400023685B68204604B0BDE87040184738B586
:102150000546044655F84C3B1B689847284602F054
:1021600057FE236805465B6820469847284638BDD9
:1021700038B50546044655F84C3B1B689847284639
:1021800002F05CFE236805465B68204698472846B7
:1021900038BD84B02DE9F04709AE86E80E0003682B
:1021A0009DF834701B680546984795F8BC303C0193
:1021B00003B18FB195F8BD300BB1012F0CD096E86B
:1021C0000F002C44983484E80F002B682846BDE8A3
:1021D000F0475B6804B0184704F1980801F00EF965
:1021E000A8440C9AD8F80C3005F14C0982B10BB90F
:1021F00001F06AFB96E80F002C44983484E80F0045
:1022000001223946484602F08DF801F00DF9DCE76D
:102210000BB101F06FFB0022C8F80C20F1E70000C1
:1022200070B5124B036086B00026CDE9006602ADA2
:1022300095E80E000446FFF7ACFF0123CDE90063EB
:10224000204695E80E00FFF7A4FF94F8BC3013B9C0
:1022500094F8BD301BB104F14C0002F039FD206A46
:1022600008B100F0E5FF204606B070BDEC4801085B
:1022700010B50446FFF7D4FF2046E42101F023FE09
:10228000204610BD4C3002F0B9B810B54C300C46A9
:1022900002F0D0F8204610BD00EB0110983008B5D0
:1022A000C3680BB1FFF78EFE08BD036870B5044626
:1022B0001B680D46984794F8BC30AB422BD065B1F3
:1022C00094F8BD304BB9A2686368511004EB62000A
:1022D000D20744BF6258D358984701F08FF805B32E
:1022E000D4F8A4305BB104F19800FFF76BFE01F065
:1022F000EBFA0122002104F14C0002F013F801F086
:1023000093F884F8BC5035B994F8BD301BB904F18A
:102310004C0002F0DDFC236820465B68BDE870409D
:1023200018472A46294604F14C0001F0FBFFD4F877
:10233000A430002BE3D001F0DDFAE0E7036870B5CC
:1023400004461B680D46984794F8BD30AB422BD02D
:1023500065B194F8BC304BB9A2686368511004EBC6
:102360006200D20744BF6258D358984701F046F83C
:1023700005B3D4F8B4305BB104F1A800FFF722FE36
:1023800001F0A2FA0122114604F14C0001F0CAFF4B
:1023900001F04AF884F8BD5035B994F8BC301BB947
:1023A00004F14C0002F094FC236820465B68BDE811
:1023B000704018472A46012104F14C0001F0B2FF99
:1023C000D4F8B430002BE3D001F094FAE0E7437D79
:1023D00010B504461BB1037D0BB101F08BFA20460A
:1023E00010BD13B5044601A800F02AFF637D53B960
:1023F000237D0BB101F068FA206900F042FBC4E9CB
:1024000000010123637501A800F022FF02B010BD96
:1024100037B504460D4601A800F012FF0023002244
:10242000C4E900236B7D4BB1286900F02AFBD5E994
:102430000032C01A61EB0201C4E9000101A800F0FA
:1024400007FF204603B030BD30B585B004460D46C9
:1024500003A800F0F5FE29466846FFF7D9FFD5E945
:102460000210009B019A5B1842EB0002C4E90032A3
:1024700003A800F0EDFE204605B030BD13B50446BC
:1024800001A800F0DDFE206900F0FBFA0022002325
:10249000C4E90001C4E9022301A800F0D9FE02B09A
:1024A00010BDD0B5002300260027C0E90067C0E9B1
:1024B00002670446016102754375FFF7DFFF20469E
:1024C000D0BD10B5044600F0F5FA012201462046C1
:1024D000FFF7E7FF204610BD0020704700290CBF22
:1024E0006FF01800002070470120704784B001A8E9
:1024F00080E80E0004B070476FF01C0070476FF06A
:102500001C0070476FF0150070476FF015007047A2
:10251000012070470120704700207047002070475D
:1025200070B511F0010405468EB204D0FFF70FFE1E
:10253000041E18BF0124F30605D52846FFF718FE30
:1025400008B144F01004204670BDA0F1E400FFF78C
:10255000E7BF08B5FFF7A9FE002008BDA0F1E40021
:10256000FFF7F7BF08B5FFF7E9FE002008BDA0F1AF
:10257000E400FFF7F7BF2DE9F04106460D46174688
:10258000C2B100F038FF80F0010313F0FF0403D064
:10259000336830461B68984705EB070815F8011BA0
:1025A0003046FFF772FEA845F8D11CB133683046BB
:1025B0005B6898473846BDE8F081A0F1E400FFF77A
:1025C000DABF38B504460D4662B103681B68984708
:1025D0002046FFF757FE2870236820465B6898471F
:1025E000012038BD1046FCE7A0F1E400FFF7E9BF89
:1025F00010B50446FFF73AFD044B03F108024433DB
:102600002260C4F8E430204610BD00BFFC48010839
:10261000EFF3108372B6054A117831B90449DB43F0
:1026200003F001030B70012313707047456B00200A
:10263000446B002008B5EFF31083DB4313F0010374
:1026400004D006490648362200F018FE054A1370E9
:10265000054B1B7803B162B608BD00BF884901086D
:10266000D1490108456B0020446B0020014B1878CC
:10267000704700BF456B0020F8B50F46044615466D
:102680001E4602F029F8013710D020685EB1A36819
:1026900018600121204602F043F829462046BDE893
:1026A000F84002F039B8E3680004F1E7F8BD1346DA
:1026B0000022FFF7E1BF0022FFF7F9BF884207B50C
:1026C00002460AD0431C08D0013105D00023054939
:1026D0000548009301F020F80146084603B05DF874
:1026E00004FB00BFEB49010830010180B1F9003063
:1026F0005A1C01D118467047834201D1486870477F
:102700000C31F3E7421C13B504460AD0FFF7EEFF85
:10271000431C06D10023044904480093224600F0DC
:10272000FBFF02B010BD00BFFC4901083001018071
:10273000B1F900305A1C01D118467047834201D1CB
:10274000886870470C31F3E7F8B5446894F8326054
:102750008EBB03685B689847216A81422BD023694E
:1027600094F934202062411A1940A368A1FB03C1E7
:10277000CAB1656A15EB0C0541F10001002A1BDBAB
:10278000C2F12000A2F1200325FA02FC01FA00F0B8
:1027900021FA03F34CEA000C4CEA030CD1400CFA8A
:1027A00002F2AA1A6262D4E90A3213EB0C0341EB7B
:1027B0000201C4E90A31F8BDE76833463A462846C3
:1027C00011F0B0FC844607FB10506062EBE78242D8
:1027D00006D98A420BD9884294BF00200120704755
:1027E000884206D98A428CBF002001207047012010
:1027F00070470020704700002DE9F74347683B6BA6
:1028000023F07F4929F0FF090646B9F1000F5FD197
:10281000FFF79AFF7B68002B5DD0D3E90041D7E931
:102820000A23A2428B4105D333685B6903B0BDE83C
:10283000F04318477568D5E90A03D5E90582241ADB
:1028400061EB030CEB69A24273EB0C031ED3EB6844
:10285000A3FB044103FB0C1195F933309BB1AA682B
:10286000501E001941F10001002B1DDBC3F1200CAB
:10287000A3F1200220FA03F401FA0CFC44EA0C0450
:1028800021FA02F21443A04528BFA0462A6A3B6AF7
:1028900090442A6908EA020293420AD11349144873
:1028A00040F2C91200F0EAFC4B4611F03BFC044632
:1028B000E9E73368019210461B69984733685B6803
:1028C0009847019A0146386AFFF781FF0028ABD18B
:1028D00003B0BDE8F0837B69386A3A69184433680D
:1028E0001B69104003B0BDE8F04318471C4A0108BB
:1028F0005B4A01084368F7B593F830200546002A83
:1029000040F0828093F83230002B7DD103681B6841
:1029100098472B68DB69984703682BB93B493C48CB
:1029200000931A4600F0F8FE3A4C19462246B1FBD5
:10293000F4F402FB14141146002CF7D16E68354CE8
:10294000B4FBF2FC0121C6F808C01F24013C02D1EF
:102950004FF0FF3403E001FA04F7BC45F6D1B3FBB6
:10296000F2F286F83340F2601F23012101FA03F4EA
:10297000A24203D0013BF9D14FF0FF3386F8343047
:102980004468201F1C2805D90023234923480093AD
:102990001A46C7E7202C1CBF0123A3404FF00701B4
:1029A00001FA00F114BF03F1FF334FF0FF330027AA
:1029B000501E336171614FEAE173A1FB0C410CFBC6
:1029C000031C47F1FF3120184CEB01013B4611F08D
:1029D000A9FB2B68C6E90601C6E900775B68984742
:1029E0006B683062002101220020C3E90A015F62A6
:1029F00028461A8683F83270FFF7A6FE284603B0F1
:102A0000BDE8F040FFF7F8BE03B0F0BD7F4A010813
:102A10000E01048040420F00984A0108050104801D
:102A200070B5054600F0EAFCD5E90034DB6898474C
:102A300094F832301BB1BDE8704000F0F5BC0123C2
:102A400084F831306368ABB12846FFF77DFE6368D8
:102A5000D4E90A61D3E90002864271EB020209D38C
:102A60006A68DB68526863602368002BEAD090686C
:102A70009847E7E7002384F831302846FFF7BCFE8B
:102A8000D9E713B50446FFF735FF00F0B7FC204641
:102A9000FFF75AFE6368D3E90A01CDE9000100F0AF
:102AA000C3FCDDE9000102B010BD08B5FFF7E9FF86
:102AB00008BD704700487047D44A0108024B1B68A4
:102AC0000BB102481847704774020020D44A01082D
:102AD000B1F90C20B1F9041002F058BA08B5BFF3EF
:102AE0005F8F1D4BD3F89010080A10F0FC0FC1F354
:102AF000072104D119491A483B2200F0BFFB0022EC
:102B0000C3F8942010468A421FD11022C3F89C209B
:102B1000144AC3F8A0201322C3F89C20124AC3F819
:102B2000A0201122C3F89C20104AC3F8A020104A0C
:102B3000C3F89C200F4AC3F8A0200722C3F89420B2
:102B4000BFF34F8FBFF36F8F08BDC3F89820C3F852
:102B5000A0000132D7E700BF00ED00E0004B010804
:102B6000404B010839F00206390702133FF50B13F9
:102B70001200008039000213102300F007B8202350
:102B800000F004B8302300F001B840239C46F0B4B4
:102B900004AE7546E80801D3EFF309860E4F0FCE59
:102BA0000FC70FBC0FC74046494652465B460FC78A
:102BB0001DCE3100A60A00D304316E0900D248317F
:102BC0001FC7EFF309806946EFF3148663C76046B9
:102BD000014900F079F800BF806B0020F0B52C4E61
:102BE0002C4F85B000243546214656F8042B384634
:102BF000013400F0E7FB0D2CF6D1AB6C02936B6C4B
:102C000001932B6C244C0093D5E90E23696B234868
:102C100000F0D8FB2168224800F0D4FBE16AA26AE8
:102C2000A36AA06A266BE76B000CCDE901670090F0
:102C3000C3F307231B48D2B200F0C4FBA36A1E06ED
:102C400003D5616B184800F0BDFBA36A180403D5D7
:102C5000A16B164800F0B6FBEB6C190712D51448AF
:102C600000F0B0FB2B6DDA070FD5124800F0AAFB7D
:102C7000EB6C5B074CBF1048104805B0BDE8F04056
:102C800000F0A0BB0E4800F09DFB0E48EEE700BF31
:102C9000806B00204D4B010800ED00E05B4B01080C
:102CA000AA4B0108B84B0108074C0108154C010854
:102CB000234C0108324C0108624C01086E4C01089B
:102CC000524C01083F4C010807B504460D461A480E
:102CD000012100F0F9FA68BB184800F073FB302CB2
:102CE00019D0402C1CD0202C1FD11548154C00F0B9
:102CF00069FB154800F066FBFFF770FF134800F012
:102D000061FB0D4B00221A700023114900932A46E3
:102D1000204600F001FD0F480F4C00F053FBE8E7A0
:102D20000E480F4C00F04EFBE3E70E480E4C00F04F
:102D300049FBDEE70024E7E7506C00207A4C0108ED
:102D4000A34C01083E01FF80D04C0108DB4C010878
:102D5000FA4C0108B24C01083F01FF80BB4C01084E
:102D60004001FF80C64C01083D01FF8070B514464C
:102D700012686FF00046B2420546049807D238B197
:102D8000014618460FF0DEF8431C05D1206070BDE7
:102D900015B18A4238BFAB54236801332360F6E78C
:102DA0002DE9F04F2DED028B8DB007469DF8703068
:102DB0009DF868B00493884691460021142207A824
:102DC000DDE9184506910FF071FF049B002B14BF3D
:102DD00030232023BBF1010F08EE103A43D1002D20
:102DE00041DA644265EB4505CDF808B00023039352
:102DF000ABF10203DBB20DF1180A0593059B012B21
:102E00005AD8BBF1020F04F00F030CBF384A394AFD
:102E10002409D35C8AF8003044EA05742D09039B29
:102E20005E1C54EA05030AF1010A43D1029B23B355
:102E3000049B3BB11D9B00934A462D2341463846D7
:102E4000FFF794FF039E1B9B02369E421ADB049BF6
:102E50003BB91D9B00934A462D2341463846FFF758
:102E600085FF013E1FE054EA050302D000230293D0
:102E7000BCE730238DF8183001261B9B9E4212DAE6
:102E8000002302931D9B00934A4618EE103A4146D8
:102E90003846FFF76BFF1B9B013BB3421B93F1DCF2
:102EA000029B002BD3D106ACC6B90DB0BDEC028B92
:102EB000BDE8F08F0396A1E7204629460A220023A9
:102EC00011F030F930328AF80020204629460A22D3
:102ED000002311F027F904460D46A0E71D9B00933F
:102EE000013E4A46A35D41463846FFF73FFFDBE718
:102EF0000A4D01081A4D01082DE9F04F8BB01C4610
:102F00000023149E09938B461546BAB1994215DBEE
:102F10001ABF01F1FF3B98464FF001084FF0000A3D
:102F200015F80A3073B948B1B8F1000F06D1099B02
:102F30005B4594BF00F8038000F80B8009980BB044
:102F4000BDE8F08F252B40F032810AF1010915F818
:102F50000930203BDBB20D2B07D842F6090222FADA
:102F600003F3DB0748BF0AF1020915F809302A2BE1
:102F700024D1002209F101070434114615F807C0D5
:102F8000BCF12E0F05EB07035ED193F801C0BCF135
:102F90002A0F2ED0C5F101074FF0000C0797079FAD
:102FA0001F4413F801EFAEF1300E5FFA8EF9B9F15C
:102FB000090F21D80A2707FB0CECF0E7302B16D1BC
:102FC00009F1010915F80930302BF9D00121A94484
:102FD0000022A9EB050719F8013B303B5FFA83FC9F
:102FE000BCF1090FCAD80A2707FB0232F1E700211A
:102FF000EDE754F804CB0237EB5D682B27D1EB19D2
:103000005B78682B0CBF7223112303F00309B944CA
:1030100015F80970642F01D0692F42D1822B30D16D
:10302000073424F007073C467F6854F8083B0392B6
:10303000CDE90416CDE900370122029209AA5946CA
:103040000790FFF7ADFE6EE06FF0004CD4E76C2BFD
:1030500006D1EB195B786C2B0CBF82232123D4E7BC
:103060006A2B08D07A2B08D0742B08D04C2B14BFB5
:1030700000236123C9E73123C7E74123C5E7512373
:10308000C3E7112B54F8047B07D0722B15BF3B46C6
:103090007BB2DF1747F3C017C9E73BB247F3C0372E
:1030A000C5E7752F04D007F0DF0EBEF1580F2FD102
:1030B000822B11D1073424F0070C6446DCF804C0DD
:1030C00054F8083B0392752FCDE904161AD100225B
:1030D000CDE9003C0292B1E7512B54F804CB0DD05E
:1030E000722B05D0112B06D063464FF0000CE9E798
:1030F0005FFA8CF3F9E71FFA8CF3F6E763464FEAC1
:10310000EC7CDFE7582F01D10322E1E70222DFE761
:10311000632F0AD154F8043B0096DBB209AA594642
:103120000790FFF723FE07980AE0732F15D154F894
:1031300004AB0AEB0C079AF800300BB1BA4502D188
:1031400009F1010AECE6009609AA594607900AF12E
:10315000010AFFF70BFE0798EDE7702F1CD154F81A
:10316000047B0096302309AA59460790FFF7FEFD1D
:1031700007980096782309AA5946FFF7F7FD002320
:10318000CDE9033303230293FB17CDE900730798BE
:10319000059609AA594654E70096252309AA5946D7
:1031A0000790252F18BFD146FFF7E0FDBBE700963B
:1031B00009AA59460790D146FFF7D8FDB3E70000AA
:1031C0000FB41FB50849096806AB896853F8042B8A
:1031D000009100206FF000410393FFF78DFE05B0D2
:1031E0005DF804EB04B07047380400200CB41FB540
:1031F00006AB002453F8042B00940393FFF77CFEE6
:1032000004B0BDE8104002B0704713B5002400942C
:10321000FFF772FE02B010BD07B5134600900A46D4
:1032200000206FF00041FFF767FE03B05DF804FB7C
:10323000024B1B6803B11847704700BFD46B0020D6
:1032400007B5019000F0DAF8019803B05DF804FBCF
:1032500007B5019000F0E8F8019803B05DF804FBB1
:103260006FF0150070476FF0150070470FF026B92A
:103270000FF0DABD0EF0E8BE0EF024BC07B50B4629
:10328000009201460022014800F046FA4401FF8006
:1032900003460122D3E84F0FC3E8412FC0B20029F3
:1032A000F8D17047D0E85F3F5B18C0E8523F002A72
:1032B000F8D198B27047D0E85F3F5B1AC0E8523F40
:1032C000002AF8D198B270470346D3E84F0FC3E8FD
:1032D000421FC0B2002AF8D17047000000B589B083
:1032E00000F08CF8052101A8FFF7E5F9114E124D09
:1032F0000424039B019A1A60304600F03DFE019BB6
:10330000049A1B041360304600F036FE013CF0D1F5
:103310000424039B019A1A60284600F02DFE019BAD
:10332000049A1B041360284600F026FE013CF0D1ED
:10333000DEE700BFF0490200801A060073B50022E4
:1033400001460446022000F047FC0D2600F056F826
:103350000022254614F8013B23B902B0BDE87040B5
:1033600000F062B80A2B09D10D2A07D001220DF115
:10337000070102208DF8076000F02EFC012229468B
:10338000022000F029FC14F8012CE2E700B5A3B0FC
:1033900002460B4601A88421FFF737FF832806D990
:1033A000074B1A681B79CDF883208DF887300028E9
:1033B00002DD01A8FFF7C2FF23B05DF804FB00BFE8
:1033C0002A4D01080FB407B504A951F8040B019167
:1033D000FFF7DCFF03B05DF804EB04B07047EFF3D8
:1033E0001080C04300F001007047EFF30580003803
:1033F00018BF01207047FFF739B9000008B5FFF783
:1034000007F9064A1368591C04D1054905483F22AB
:10341000FFF734FF0133136008BD00BFD86B0020F5
:103420002F4D0108714D0108044A136823B1013B77
:1034300013600BB9FFF7FEB8704700BFD86B0020D0
:1034400008B50B48FFF724FF28B1FFF7D7FFBFF3FC
:103450004F8F20BFFDE7FFF7C8FF08B1FFF73EFF22
:10346000FFF7BDFF0028F9D0012000F009FD00BFE3
:10347000186C00202DE9BF43464C0F462168C1F36C
:103480004173032B0CBF4D428DB2C1F307438146FC
:10349000904641482A46FFF795FF6FF498731D4404
:1034A000132D0FD8DFE805F00A585B5E6167646A88
:1034B0000E0E0E0E0E0E0E0E0E0E0E6DA16837487D
:1034C000FFF780FF4846FFF739FF61683448FFF790
:1034D00079FF4FB13348FFF731FF3846FFF72EFF32
:1034E00031484146FFF76EFFA1683048FFF76AFF99
:1034F00023682F4A1A44012A05D92E4A934202D042
:10350000033A934241D1A06820B1C06C80F008001A
:10351000C0F3C000E368002B39D05968264A00295F
:1035200008BF1146E2690392A269029262690192A0
:1035300022690092214D224A002818BF2A462148BC
:10354000FFF740FF21682048FFF73CFF1F4804B009
:10355000BDE8B043FFF736BFA1681D48B0E7A168DA
:103560001C48ADE7A1681C48AAE7A1681B48A7E76B
:10357000A1681B48A4E7A1681A48A1E7A1681A48F6
:103580009EE71A48FFF71EFF9CE70020C2E70A49A2
:10359000C8E700BF1C6C0020B74D0108084E0108A9
:1035A000B04E0108C14E0108C94E0108CD4E0108B8
:1035B000C2FE007F4001FF80A24D0108AC4D010812
:1035C000F94C0108E14E01083A4F0108874F010804
:1035D0001E4E01082E4E01083D4E0108504E0108B6
:1035E000644E0108784E0108874E01089D4E01087F
:1035F00070470000F0B5294D8FB035EA200528BF8F
:1036000005460E4617460021302202A80FF04EFB59
:10361000234B01952B44012B01AC039605D9214B7B
:103620009D4202D0033B9D4232D1F36B0293736BF8
:1036300008931D4B5B690493DA6B05925A6B1B6B05
:1036400006920793FFF7DAFE184A13680133012B3D
:10365000136009D126460FCE154D0FC50FCE0FC5ED
:103660000FCE0FC533682B600FCC124D0FC50FCC9A
:103670000FC50FCC0FC523682B600F4B1B68A5F13E
:10368000300043B19847FFF7CFFE00200FB0F0BDE8
:1036900002970894CDE7FFF7ABFFF4E70101FF8045
:1036A000C2FE007F4001FF80CC010020DC6B0020C7
:1036B000E46B00201C6C0020E06B00200FB41FB5F1
:1036C0000D48CDF804E00121FFF7FEFD019A044604
:1036D00080B901460948FFF78DFF09482246214677
:1036E000FFF7C8FE069807A90391FFF74FFE0548AC
:1036F000FFF724FEFFF7A4FE506C00200001FF80BE
:10370000A14F0108F84C010800207047014B1878C0
:10371000C0B27047506C002080B506460C460A487F
:103720000121F04617461D46FFF7CEFD48B9424637
:1037300039463046FFF75EFF029A29462046FFF7DA
:1037400099FEFFF77DFE00BF506C002009B9C82824
:1037500005D010F0030F0CBF012000207047084671
:10376000704700002DE9F04105460E4639B330B3ED
:103770004769A7F14608B8F1880F20D8D0E90010B2
:10378000AC684FF4616363433C2404FB00330B4497
:10379000E9681A4C013904FB013338461146FFF73A
:1037A000D5FF29690C2404FB0010154951F820109D
:1037B000CE2F0B4409D122B912498B4207D30020E6
:1037C00019E0012A03D11049F7E7462F0FD0781EE0
:1037D0008010A0F111011AB9C82FC8BFA0F11201C1
:1037E00040F26D1202FB0811044A02FB0133336000
:1037F000002373600120BDE8F08100BF805101000B
:10380000B84F01088022310000D12F0070B5194651
:103810000446002A52D03C25B0FBF5F005FB1044CD
:10382000B0FBF5F305FB1300506018201460B3FBE8
:10383000F0F400FB143393600720231DB3FBF0F07A
:10384000C0EBC000181A46239061536155692846A1
:10385000FFF77CFF38B1B4F5B77F0DD30135556163
:10386000A4F5B774F2E7B4F5B67F05D901356FF466
:10387000B67355611C44E9E7114B124DD4613021F8
:103880005C430B23136101FB0051002351F8046BCF
:10389000A6420FD9013B136113690C2101FB0030D3
:1038A00055F82030E41A064BB4FBF3F40134D4602D
:1038B000012070BD01330C2BE8D1EDE71046F8E78D
:1038C00080510100B84F010813B5074C0121204673
:1038D000FFF7E8FC034628B9009022880349044812
:1038E000FFF71AFF02B010BD526C002018500108FB
:1038F0002301048013B5094C01212046FFF7DBFCAE
:103900004FF6FF73984206D10023228804490548E8
:103910000093FFF701FF02B010BD00BF526C002002
:103920003A50010824010480034B188880B2B0FA91
:1039300080F04009704700BF526C002008B5FFF7C7
:103940005DFDFFF7F1FF28B101F062FCBDE8084022
:10395000FFF76ABD01F04AFCF8E76FF01C00704702
:103960006FF01500704701207047002070477047C6
:10397000034B186818B14FF0FF31FDF78FBC70474B
:10398000206B0020024B186808B1FDF79FBC704700
:10399000206B0020F8B5074E15460C468F18BC4228
:1039A00005D014F8011B304600F044FDF7E7284627
:1039B000F8BD00BFF06E002038B511F001048DB2E3
:1039C00005D0084801F024FA041E18BF0124EB06B4
:1039D00005D5044801F032FA08B144F0100420463D
:1039E00038BD00BFF06E002010B504460EF05EFD3D
:1039F000204610BD10B50C462AB1044800F0FEFC6C
:103A00002070012010BD1046FCE700BFF06E0020C2
:103A100038B5084B0360084B1B680446154633B99C
:103A20000648FFF755F80548294601F03DFA2046BB
:103A300038BD00BF745101083C6F0020F06E0020BB
:103A40000020704700207047074A0849136818444F
:103A5000884289BF064B10600C224FF0FF308CBFAC
:103A60001A601846704700BF7803002000FC012050
:103A700024960020012070470120704708B5FEF70A
:103A80003FF908BD08B5FEF743F908BD08B5FEF7D4
:103A900045F908BD08B5FEF749F908BD10B504465B
:103AA000037803F00303012B08D0FFF761FF2378AD
:103AB00003F00302012A03D1FFF764FF00200AE0AC
:103AC0002AB10549054840F29A62FFF7D7FB43F057
:103AD00002032370012010BD585001089C500108BA
:103AE00008B5037803F00302022A05D00749084805
:103AF00040F2A362FFF7C2FB23F0030343F001038C
:103B00000370BDE80840FFF73DBF00BF58500108F3
:103B1000BA5001083F2870B504462EDC184E56F8FE
:103B200020305A1C13D1022811DCFFF78BFF03460B
:103B300058B92046FFF784FF034630B9114D2B7862
:103B4000BFF35B8FDB0704D50F4B46F824301846D4
:103B500070BD2846FFF7A2FF0028F5D00B490A48A0
:103B60004FF41652FFF754FF094A0A490648FFF777
:103B700081FF2846FFF7B4FFE6E70023E7E700BF31
:103B800078020020546C0020D86C0020BC51010841
:103B9000C80100206F39000838B50546FFF7BAFFA5
:103BA0000B4B002443F8254030B90DF0C7FF092323
:103BB00003604FF0FF3038BD03685B699847051E0E
:103BC00004DA0DF0BBFF6D420560F2E72046F2E734
:103BD00078020020FFF7E0BF13B5CDE90021FFF721
:103BE00099FFDDE9002140B90DF0A8FF092303602A
:103BF0004FF0FF34204602B010BD0368DB689847E1
:103C0000041EF7DA0DF09AFF64420460F0E713B582
:103C1000CDE90021FFF77EFFDDE9002140B90DF07D
:103C20008DFF092303604FF0FF34204602B010BD22
:103C300003689B689847041EF7DA0DF07FFF644223
:103C40000460F0E710B5FFF765FF044628B90DF0F2
:103C500075FF09230360204610BD0368DB699847A0
:103C6000041EF8DA0DF06AFF644204600024F2E7F3
:103C70002DE9F74F06460F469046FFF7B6FB05467F
:103C800030B100232D492E4800933246FFF744FD02
:103C9000FFF7A5FB0028F4D0B8F1000F09DA0DF00A
:103CA0004DFF162303604FF0FF34204603B0BDE8FC
:103CB000F08F3046FFF7C6FF044660B3DFF884B0EC
:103CC000DFF884A01BF806902C46A84523DD7A5D1A
:103CD0000A2A1CD1B9F10D0F19D0AC420BDA2A1BFC
:103CE00039193046FFF778FF0028DCDB0444A54291
:103CF000DBDC0BF80690012251463046FFF76CFFE3
:103D00000028D0DBD1D04FF00D030BF8063017F8A8
:103D100005900135D9E7A045C7DDA8EB04023919A4
:103D20003046FFF759FF0028BDDB24181FBF3F199D
:103D3000044B17F8012C9A55B7E700BFF150010862
:103D40002F010180986C00202B510108FFF77ABFEA
:103D50007FB504460D461646FFF747FB30B10023FA
:103D60001E491F4800932246FFF7D6FCFFF737FB9A
:103D70000028F4D0002E06DA0DF0E0FE16230360D2
:103D80004FF0FF3018E02046FFF75CFFE8B1154E1A
:103D900001220DF10F012046FFF739FF0028EFDB6C
:103DA0000AD09DF80F300D2B08D1325D0A2A335509
:103DB000EED00A232B70012004B070BD0A2B02D173
:103DC000325D0D2AF3E73355F4E7324629462046A3
:103DD00004B0BDE87040FFF71ABF00BF2D510108C5
:103DE0002F010180586C002013B5CDE90021FFF7A9
:103DF00091FEDDE9002140B90DF0A0FE092303602A
:103E00004FF0FF34204602B010BD03681B6998478D
:103E1000041EF7DA0DF092FE64420460F0E7FFF74B
:103E2000E3BF10B5FFF776FE30B90DF087FE09232A
:103E300003604FF0FF3010BD03689B699847041E74
:103E400004DA0DF07BFE64420460F2E70020F2E742
:103E50000A4D08B52B68044698680DF0A1FF2B6841
:103E6000D8680DF09DFF0120FFF7DBFF0220FFF770
:103E7000D8FF0CB1FFF732FAFEE700BF380400208C
:103E800008B5FFF7E5FF38B50D46FFF743FE0446DA
:103E900030B90DF053FE092303604FF0FF3038BDF9
:103EA0000368DB699847002814BF4FF400534FF4B0
:103EB00000436B60236820469B6A98472861002076
:103EC000EDE7FFF7E0BF0EF0F1BA000010B50446D1
:103ED0000A48FEF741F800F08BF8094B1B6803B164
:103EE0009847084B1B6813B1D4E900019847034871
:103EF000FEF732F800F09AF8002010BDE46C0020C4
:103F0000840300207C0300201FB502460B46684650
:103F10000021CDE90211CDE90023FFF7D7FF05B05D
:103F20005DF804FB38B504461048FEF715F800F0BC
:103F30005FF80F4B1B682BB1984718B90020002180
:103F4000FFF7E2FF0B4B1B685BB198470025C4E904
:103F50000001A5600548FDF7FFFF00F067F828465F
:103F600038BD4FF0FF300146F0E700BFE46C0020A1
:103F7000800300208803002070B50446FEF79AFDF8
:103F80000646FEF792FD05463046FEF78EFD431BC2
:103F9000A342F9D370BD00001FB5002303620D4B8F
:103FA000002918BF0B460093031D02931C230446EF
:103FB000039368460B230193FDF758F9206038B945
:103FC000FFF7A4FB20B9044904483D22FFF756F946
:103FD00004B010BDD4510108EE5101082652010869
:103FE00010B500210446FFF7D7FF204610BD0000A2
:103FF00037B504464FF0FF310068FDF74FF905462D
:1040000020B9236A0133236203B030BDFFF77EFB82
:1040100003460028F8D10349034800932A46FFF7D6
:104020007BFB00BF4A52010815010280036A013B75
:1040300013B503620068FDF749F9044648B1FFF77C
:1040400065FB034628B90090034904482246FFF760
:1040500063FB02B010BD00BF5C5201081701028073
:1040600010B594B0294B002100911A6C42F0805297
:104070001A641B6C03F080530093009B244B019146
:104080001A6842F440421A601B6803F440430193EB
:10409000044607A8019B01F0B5FF0D9B022B15D12B
:1040A00001F0A8FA70BB0F220223CDE902234FF4DE
:1040B000A0514FF48053CDE905130490052102A8C7
:1040C00001F0D2FAB0FA80F040091CE00123002C84
:1040D00007930CBF4FF480334FF4A0234FF48002BA
:1040E000089302230820CDE90D324FF4B472CDE9D4
:1040F0000F02072207A8CDE91223119301F0EAFD70
:104100000028CDD0002014B010BD00BF0038024000
:104110000070004010B594B00023224A0093116C47
:1041200041F080511164126C02F080520092009AAA
:104130001D4A0193116841F44041116012680893CF
:1041400002F4404201920224019A0322CDE90D4378
:1041500007924FF4B4730122CDE910340A9206237A
:10416000102207A80B920F92129301F0B3FD10B129
:10417000002014B010BD01F03DFA0028F8D10F2343
:10418000CDE9023404904FF4A0524FF4805305213E
:1041900002A8CDE9052301F067FAB0FA80F04009E2
:1041A000E7E700BF003802400070004008B501207A
:1041B000FFF756FF28B9FFF7ADFF10B90148FFF729
:1041C0007DFA08BD60530108DFF830D0002103E01C
:1041D0000B4B5B58435004310A480B4B42189A4230
:1041E000F6D30A4A02E0002342F8043B084B9A4205
:1041F000F9D301F055F9FCF709F8704700000220E7
:10420000B8620108C8010020980C0020A00C002012
:1042100030960020FEE70000F7B500F08FFE041E88
:1042200026DB144F57F8240010B3134EA501735921
:104230001A68120606D5DB68190603D50F4B012153
:104240001B68984773591A68920608D5DB68980668
:1042500005D50A4B57F824001B680021984773596D
:104260001A68110704D55A69D20744BF5B680193E5
:1042700003B0F0BD106D0020286D00200C6D0020F3
:104280000148FFF7C9BF00BF001401400148FFF714
:10429000C3BF00BF005000400148FFF7BDBF00BFD3
:1042A000004C00400148FFF7B7BF00BF0048004086
:1042B0000148FFF7B1BF00BF004400400148FFF7CD
:1042C000ABBF00BF00100140002808DB01234209FA
:1042D00000F01F0003FA00F0014B43F82200704782
:1042E00000E100E000280DDB4309012200F01F007F
:1042F00002FA00F02033044A42F82300BFF34F8F44
:10430000BFF36F8F704700BF00E100E0034B1960FF
:104310004168034B43F82120704700BF0C6D00201B
:10432000106D002030B4D0E900352A48834236D0E1
:104330001FD8A0F5006083422BD000F58060834237
:104340002AD0A0F50060834220D000242046AB0193
:10435000214DEB584AB3DA6821BB42F02002DA6003
:104360001E4B00F110029B6843F8224030BCFFF75F
:10437000ABBF1B48834206D000F580608342E4D186
:10438000184C4720E3E7184C2520E0E7174C26207F
:10439000DDE7174C2720DAE7164C3420D7E7164C18
:1043A0003520D4E742F08002D9E7DA6849B922F033
:1043B0002002DA60DB6813F0800F09D130BCFFF710
:1043C00091BF22F08002DA60DB6813F0200FF4E77F
:1043D00030BC704700500040286D002000ED00E028
:1043E0000010014081420008BD420008B1420008AF
:1043F000A5420008994200088D42000838B545687A
:104400000446204600F004FD0028FAD0084B6269FB
:10441000AD015B591AB95868C0F3080038BDE268AD
:10442000586812B900F07F00F8E7C0B2F6E700BFA5
:10443000286D002070B5466805460C46284600F0F9
:10444000FDFC0028FAD0034BB601C4F308049B59C5
:104450005C6070BD286D002043692DE9F0410D4678
:10446000D907044629D58768334E826833483449D2
:10447000A36807EA060CBE4302EA000204BF012655
:10448000A660824203EA010304BF4FF48070A0607B
:104490008B4204BF4FF48031A16027498C4505D081
:1044A00026498A4202D0264A934206D1254B264A03
:1044B0001B6852F8250001219847E268636992075A
:1044C00008D09F0706D51F4B1F4A1B6852F82500CE
:1044D00000219847A169626963698E070AD5900532
:1044E00008D5190406D5174B174A1B6852F8250042
:1044F00005219847A7696669626917F0040706F401
:10450000806609D046B1120406D50E4B0E4A1B68D0
:1045100052F825000721984763695FB156B11B0423
:1045200008D5084B084A1B6852F825000221BDE84F
:10453000F0411847BDE8F0810300000400030008C3
:1045400000000310B06E0020A86E0020014800217A
:10455000FFF782BF00640040FFF7F8BFFFF7F6BF28
:1045600001480121FFF778BF00680040FFF7F8BF5E
:10457000FFF7F6BF30B591FAA1F391FAA1F1B3FAC2
:1045800083F304685B000325B1FA81F105FA03F3B4
:10459000490024EA03038A401343036030BD00004E
:1045A00000B5384B89B00022072867D8DFE800F053
:1045B00004121E2A36424E5A00921A6B324842F0BA
:1045C00001021A631B6B03F001030093009B09B007
:1045D0005DF804FB01921A6B2C4842F002021A6348
:1045E0001B6B03F002030193019BF0E702921A6B2D
:1045F000274842F004021A631B6B03F00403029382
:10460000029BE4E703921A6B224842F008021A6305
:104610001B6B03F008030393039BD8E704921A6B08
:104620001D4842F010021A631B6B03F01003049341
:10463000049BCCE705921A6B184842F020021A63DB
:104640001B6B03F020030593059BC0E706921A6BD2
:10465000134842F040021A631B6B03F040030693B9
:10466000069BB4E707921A6B0E4842F080021A6369
:104670001B6B03F080030793079BA8E70A48FFF72B
:104680001DF800BF00380240000002400004024054
:1046900000080240000C02400010024000140240DA
:1046A00000180240001C024074530108431C10B55E
:1046B000044604D1064907487622FEF7DFFD4FF491
:1046C000707100F0B7F804F00F040120A04010BD95
:1046D00095530108D55301084B1C70B504460E468E
:1046E000018216D0C1F30310FFF75AFF054630468A
:1046F000FFF7DCFF238A074A656103F00F032060A0
:1047000052F82330A36105F110031835C4E90255AE
:10471000636070BD28540108B0F9100000F014B9AE
:104720000A46D0E905010AB9FFF724BF0122FBE7D9
:1047300008B500F0EDFD002008BD000010B5FEF743
:104740005DFE124B124A1349586A14680B881060B8
:104750001B1B0344B3F5803F15D34FF47A70B3FBB2
:10476000F0F200FB123305E00132A3F57A73B3F5E2
:104770007A7FF9D2084C0B80236813442360FEF73C
:1047800053FE206810BD0022F1E700BF000C00407E
:10479000B86E0020B46E0020BC6E00207047000090
:1047A00007B500F08BFE00F0C5FE0B4B186F10F044
:1047B000020005D1019000F0E9FE019801F036FAFF
:1047C000FFF7F4FC00F07AFEFFF7E8FF034B01224D
:1047D0001A6003B05DF804FB00380240C06E002090
:1047E00030B591FAA1F391FAA1F1B3FA83F3846899
:1047F0005B000325B1FA81F105FA03F3490024EACD
:1048000003038A401343836030BD30B591FAA1F3AE
:1048100091FAA1F1B3FA83F3C4685B000325B1FAFE
:1048200081F105FA03F3490024EA03038A401343A4
:10483000C36030BD2DE9F8430E46411C7CD000F02A
:104840000F023E4B1FFA80F9C0F3031053F82250B9
:10485000C6F38318FFF7A4FEB8F10F0F06F00707A1
:104860000CBF0322424629460446FFF7B9FF032F37
:104870005DD8DFE807F01D1D021D19F0080FC6F313
:1048800083223FD02B0A93FAA3F1B1FA81F1406A57
:1048900093FAA3F389004FF00F0CB3FA83F30CFAE9
:1048A00001F19B0020EA010102FA03F30B4363626A
:1048B00095FAA5F2B2FA82F223685200032101FAB6
:1048C00002F223EA020295FAA5F3B3FA83F35B003E
:1048D00007FA03F3013F1343012F236005D86368F0
:1048E00032074CBF2B43AB436360C6F30112012A6E
:1048F00002D0022A18BF002229462046BDE8F8430C
:10490000FFF783BF95FAA5F1B1FA81F1036A890037
:104910000F2000FA01F123EA010195FAA5F3B3FA99
:1049200083F39B0002FA03F30B432362C0E70449BD
:1049300004487D22FEF7A2FCBDE8F8832854010854
:10494000E8530108B850010838B5431C0C463BD069
:1049500000F00F021D4BC0F3031053F82250FFF775
:104960001FFE95FAA5F2B2FA82F35A0001680323FA
:10497000934095FAA5F2B2FA82F20B405200D3406E
:10498000013B012B16D8E31E022B436809D82B43A9
:10499000032C436016D101222946BDE83840FFF7B9
:1049A00034BF23EA0503012C4360F4D0022C07D066
:1049B0000022F1E704F0FD03012BECD0052CF5D12A
:1049C0000222E9E7052CF2E738BD00BF28540108B0
:1049D00070B5A6B03422002102A80EF067F95C225F
:1049E00000210FA80EF062F9274B1E68002E48D157
:1049F000264C019601251D60236C43F080532364EF
:104A0000236C03F080530193019B00F0BFFD04234E
:104A100002A802930896049501F05CF910B11C48B5
:104A2000FEF74CFEA36823F4F813A360236F43F44E
:104A30008073236720230F930FA84FF480731F9375
:104A400000F0ECFE08B11348EAE7134B134CC3F82F
:104A50003C5E134B2360C4E904006077606003226E
:104A600041F6FF73A0612046C4E9022301F04BFB2D
:104A700008B10C48D4E7204601F078FC08B10A4898
:104A8000CEE726B070BD00BFCC6E002000380240DB
:104A9000685401088854010800004742D06E002085
:104AA00000280040B1540108CC54010830B5204B17
:104AB00020481C6820495D688DB004401A68024097
:104AC000A24205EA01052CD15A680A40AA4228D11F
:104AD00005F03F0001F041FC0690C5F3042001F011
:104AE0003CFC01380790280C01F037FC443008905A
:104AF000C4F3054001F031FC0590C4F3062001F039
:104B00002CFC049004F07F0001F027FC01220390AC
:104B1000694603A8FEF726FE38B1DDE900010DB0B5
:104B200030BD1C685D680440C8E700200021F6E73E
:104B3000002800407F7F7F003FFFFF00024BD868C6
:104B4000C0F30010704700BF00280040F8B5FEF722
:104B500055FC1C4A1C4B1468956A11681C4019408E
:104B6000A1422DD1916AA9422AD1C4F3054001F096
:104B7000F4FB0646C4F3062001F0EFFB074604F001
:104B80007F0001F0EAFB3C2111FB07024FF4616357
:104B90000E490F4C03FB062301330A680868C3EB78
:104BA00043335B1B9A4285BF25680A4A2268521923
:104BB000121A1A4422600B60FEF736FC2068F8BD1A
:104BC0001468C9E7002800407F7F7F00C46E002082
:104BD000C86E002080AE2E2AF0B5002491B01422B9
:104BE00007460E462B4D0194214602A80EF05EF8B2
:104BF000FEF704FC284B2B6007AA012338463146F8
:104C0000FEF704FE002843D00D9B8DF80B40A34215
:104C100008BF07238DF804300B9B01338DF8053056
:104C20000A9B8DF806300C9B443B8DF80730099B9E
:104C30008DF80830089B8DF80930079B8DF80A30F5
:104C4000CDE90544FFF782FF9DF809109DF80A2081
:104C50003C2313FB01239DF808204FF4616101FB05
:104C600002330E4AC3EB4333136001A922462846A0
:104C700001F013FB024610B10948FEF71FFD02A91F
:104C8000284601F099FA08B10648F6E7FEF7CCFB92
:104C900011B0F0BDD06E002000280040C46E00208E
:104CA000E6540108FD5401080FB407B5064B074947
:104CB0001B6805AAD8680192FEF7AEFA03B05DF84A
:104CC00004EB04B0704700BF3804002014550108FD
:104CD0000368484A934210B504461ED102F5943247
:104CE000516A41F010015162516A21F01001516284
:104CF000516C21F0100151643F4A934242D13F4B25
:104D00005A6A42F020025A625A6A22F020025A621B
:104D10005A6C22F020025A6434E0394A934216D089
:104D200002F58062934220D0364A934254D0364AEC
:104D30009342E1D1314B1A6A42F480121A621A6A24
:104D400022F480121A621A6C22F4801219E02B4AA3
:104D5000116A41F400311162116A21F400311162CB
:104D6000116C21F400311164C6E7244B1A6A42F435
:104D700080221A621A6A22F480221A621A6C22F4C1
:104D800080221A64B4F918004FF47071FFF752FDD5
:104D9000B4F91A004FF47071FFF74CFD236A23F445
:104DA0000073B3F5807F05D1B4F924004FF470711E
:104DB000FFF740FD236A23F48073B3F5007F05D12C
:104DC000B4F926004FF47071FFF734FD62680F4BA1
:104DD000002143F8221010BD084B1A6A42F4002249
:104DE0001A621A6A22F400221A621A6C22F4002251
:104DF000C7E700BF00100140001401400038024026
:104E000000440040004C004000500040106D002065
:104E10004368094A9B0182B0D3581A68120706D525
:104E2000002201921A6801925A680192019A186848
:104E3000C0F3401002B07047286D00204368034A59
:104E40009B01D3581868C0F3C0107047286D00202C
:104E500003464068134A810110B41C688C5002EB71
:104E600080109A684260DA6882601A69C2605A6982
:104E700002611A6A82610022C284C2618284C28590
:104E80008285B3F91A20013205D108235DF8044B5D
:104E9000436101F0A0BBB3F9183001330CBF042308
:104EA0000C23F3E7286D002010B581600C46FFF756
:104EB000CFFF28B121460348BDE81040FFF7F4BEFC
:104EC00010BD00BF14550108012A10B50ED0022AEA
:104ED00024D000240929446126D010DC072910D0F1
:104EE00008290CD17AB14FF480520CE04FF4C06223
:104EF00008294261F7D0092918D0072902D00C48A7
:104F000010E072B10022022B0CBF4FF400530023BB
:104F1000BDE81040C2600361FFF79ABF4FF48062A2
:104F2000E6E70448FEF7CAFB002ADCD00248F9E7AE
:104F30009F5501083E55010870550108124B9842D3
:104F400017D0A3F54C43984215D003F580639842DF
:104F500013D003F58063984211D003F58063984223
:104F60000FD003F54443984214BF4FF0FF300520A3
:104F700070470020704701207047022070470320CF
:104F800070470420704700BF001001402DE9F04732
:104F90000F4686B06349044638461646FDF7B2FB15
:104FA000614982463046FDF7ADFB01465046FDF7AC
:104FB00085FB5C4905463846FDF7BAFB5A498146F0
:104FC0003046FDF7B5FB022F80460AD0032E08D0ED
:104FD00054490220FDF796FB50450CD15348FEF78B
:104FE0006DFB4FF0010A691C256007D150495148FB
:104FF0003E22FEF743F94FF0000AF4E74E4B9D4284
:105000004FF0000323D100934C4B5A6C42F0100236
:105010005A645B6C03F010030093009B484B9D4265
:1050200023D100230393454B1A6C42F400221A64E7
:105030001B6C03F400230393039B2846FFF77EFFBA
:10504000002860603FDA3A493E489D22D1E73E4A57
:1050500095421AD10193394B1A6C42F400321A640A
:105060001B6C03F400330193019B384B9D421AD112
:1050700000230493314B1A6C42F480121A641B6CA7
:1050800003F480130493049BD7E7314A9542C5D1BA
:1050900002932A4B1A6C42F480221A641B6C03F4AC
:1050A00080230293029B2B4B9D42C6D10023059384
:1050B000224B5A6C42F020025A645B6C03F02003CE
:1050C0000593059BB9E749463846FFF7B3FB012135
:1050D0003846FFF739FC41463046FFF7ABFB304618
:1050E0000121FFF731FC00234FF41652C4E90223DB
:1050F000C4E904332362278366832046FFF7A8FEB2
:10510000BAF1000F0AD0144B144801221A6021464C
:105110004C2206B0BDE8F0470DF0B2BC06B0BDE8C9
:10512000F08700BFE852010870520108CD55010810
:1051300002560108445601080010014000380240A0
:10514000004C004060560108004400400050004000
:1051500000480040001401403C6F0020F06E002029
:105160001C4BD86810F4005018BF18681A4BDA6846
:105170001CBF80F04000C0F38010920404D51B686F
:1051800013F0400F08BF0120144BDA68910404D5D6
:105190001B6813F0400F08BF0120114BDA6892041E
:1051A00004D51B6813F0400F08BF01200D4BDA68CF
:1051B000910404D51B6813F0400F08BF01200A4B6F
:1051C000DA68920404D51B6813F0400F08BF012071
:1051D000704700BF001001400044004000480040FC
:1051E000004C0040005000400014014008B5FEF79C
:1051F00005F9064B1868012110F0010018BF084698
:1052000000F0CAF9BDE80840FEF70EB90070004092
:1052100030B591B0FFF7A4FF0446002856D1FEF741
:10522000EDF800F00DF901210846294D00F0C6F90E
:105230002146342203A82C600DF038FD254B029442
:105240001A6C42F080521A641B6C03F08053029374
:1052500003A8029B00F0D6FE022303930121102332
:1052600003A80994CDE9061300F034FD044610B1FB
:105270001948FEF723FA01460190142203A80DF005
:1052800015FD01A903A800F0ABFA0F2301990393C0
:1052900003A8CDE904440794069400F0E5F908B1A9
:1052A0000E48E6E7FEF782FF00F094F8044600F0AF
:1052B00091F8031BB3F5FA7FF9D300F0D9F8012375
:1052C0002B6011B0BDE83040FEF7AEB811B030BD74
:1052D000C06E00200038024072560108975601083F
:1052E000074B084A13601A69910707D5DA689207D5
:1052F00004D56FF002021A61FDF7E0BB704700BFF2
:10530000000C0040406F002000487047C056010864
:1053100030B589B001A903A800F062FA00F040FAA4
:10532000002302931F4B01901A6C1F4C42F008029D
:105330001A641A6C02F008020292029A1A6A42F087
:1053400008021A621A6A22F008021A62069AA3F583
:105350000B3323604FF0FF33E360144BFAB9B0FB1B
:10536000F3F00138002560600F482561C4E9055558
:10537000A56001F079F80E4B0E4A9B68C3F808212E
:105380000D4B4FF480225A600748294601F094F8EB
:105390002268D36823F00203D36009B030BD400017
:1053A000DDE700BF00380240406F002040420F00A0
:1053B00000ED00E0E152000800E100E0044802686E
:1053C000D36823F00203D360002101F075B800BF59
:1053D000406F0020014B586A704700BF000C00402E
:1053E000054B1B686FF0020258631A61DA6842F0DD
:1053F0000202DA60704700BF406F0020064B1B6856
:105400006FF002021A615A6942F002025A61DA68C8
:1054100042F00202DA607047406F0020034B1A68C6
:10542000D36823F00203D360704700BF406F0020B1
:10543000024B1B686FF002021A617047406F002038
:10544000064B074A1B68596A11605A6B054B1A6074
:10545000054BDA68054B1A60704700BF406F0020AB
:10546000846F0020806F0020000C0040886F0020B7
:10547000064B074A1B6812685A62064A12685A634A
:10548000054B1A68054BDA60704700BF406F00207B
:10549000846F0020806F0020886F0020000C004087
:1054A000044BD3F8882042F47002C3F88820024AE3
:1054B0009A60704700ED00E000000008174A1849A4
:1054C000936803F00C03042B0DD0082B0DD0154B63
:1054D0000B60124B144A9B68C3F30313D25C0B6836
:1054E000D3400B607047114BF2E75368506813F4D8
:1054F000800F00F03F00536814BF0C4A094AB2FB0A
:10550000F0F0064A5268C2F30142C3F38813013235
:1055100043435200B3FBF2F3DAE700BF0038024026
:105520008C0300200024F400C856010800127A0001
:105530007047000008B50B4B1A6842F400721A60FD
:105540001A6842F480621A601A6842F480721A6023
:10555000032000F009F80F20FFF7EAF8FFF7E8FF53
:10556000002008BD003C02400749CA6822F4E062FE
:105570000302120403F4E063120C134343F0BF630D
:1055800043F40033CB60704700ED00E0014B012293
:105590001A62704700000E42074A1369012923F07E
:1055A0000403136104D130BF00BF00BF00BF7047C8
:1055B00040BF20BF20BF704700ED00E00B4A1368DA
:1055C00023F0030318430A4B10601A69012942F0C3
:1055D00004021A6105D130BF1A6922F004021A616F
:1055E000704740BF20BF20BFF6E700BF00700040FB
:1055F00000ED00E037B500230193184B184D1A6CED
:1056000042F080521A641B6C03F080530193019B9B
:10561000144B01221A64FFF791F804466B68DA0311
:105620000BD5104B0E4D01225A64FFF787F8044644
:105630006B689B030AD5002006E0FFF77FF8001B8C
:10564000B0F57A7FEAD9032003B030BDFFF776F8D2
:10565000001BB0F57A7FEBD9F5E700BF00380240B8
:105660000070004000000E422DE9F0410D46044656
:1056700010B90120BDE8F081444B1A6802F00F0216
:105680008A4228D3226897072DD4D00741D43F4BB4
:105690001A6802F00F02AA4266D8226851076CD439
:1056A000130707D53A4A2169936823F4604343EA14
:1056B000C103936000F0C6FA354B364A9B68C3F3CA
:1056C0000313D35CD840344B1860344B1868FFF791
:1056D0002FF80020CEE7CAB21A701B6803F00F0340
:1056E0008B42C6D1CEE72A4B12F0040F1EBF996839
:1056F00041F4E0519960160742BF996841F4604156
:1057000099602349A0688B6823F0F00303438B6002
:10571000BBE762681E4B012A1CD11B6813F4003FD3
:10572000A7D01B4EB36823F003031343B360FFF706
:1057300005F841F288380746B368626803F00C0345
:10574000B3EB820FA3D0FEF7F9FFC01B4045F3D99E
:1057500003208FE7911E01291B6802D813F0007FF8
:10576000DEE713F0020FDBE7EAB21A701B6803F002
:105770000F03AB427FF47DAF8FE70549E0688B688C
:1057800023F4E05303438B608AE700BF003C0240F0
:1057900000380240C85601088C0300209003002006
:1057A000044B054A9B68C3F38223D35C034A106809
:1057B000D840704700380240D85601088C030020BA
:1057C000044B054A9B68C3F34233D35C034A106819
:1057D000D840704700380240D85601088C0300209A
:1057E0000F2303600B4B9A6802F0030242609A6831
:1057F00002F0F00282609A6802F4E052C2609B6894
:10580000DB0803F4E0530361034B1B6803F00F0351
:105810000B60704700380240003C024003682DE9ED
:10582000F74313F0010604460BD0AB49866BD1F861
:105830008C2022F0C0623243B6FA86F6C1F88C2082
:1058400076099A070BD5A448E16BD0F88C2022F09A
:10585000C0520A430029C0F88C2008BF012613F06B
:10586000040512D09C49256BD1F88C20B5F5801F1A
:1058700022F4401242EA050218BFB5FA85F5C1F8D4
:105880008C2012BF6D09002501261F070FD59248F5
:10589000616BD0F88C2022F440020A43B1F5800FEE
:1058A000C0F88C2000F00A81002908BF0125980665
:1058B00033D500230193884B884F1A6C42F08052F5
:1058C0001A641B6C03F080530193019B3B6843F403
:1058D00080733B60FEF732FF80463B68D90540F19C
:1058E000EF807D4F3B6F13F4407340F0FD80236CDD
:1058F00003F44072B2F5407F774A40F01A81916814
:1059000023F0704021F4F81120F4407001439160BD
:10591000116FC3F30B030B4313672368D80642BF11
:105920006F4B94F85820C3F8E0212368190608D576
:105930006949E06CD1F8942022F440020243C1F896
:1059400094205A0608D56449A06CD1F8942022F01E
:1059500080620243C1F89420DF050CD55E48616D7A
:10596000D0F8942022F000620A43B1F1006FC0F831
:10597000942008BF0125980508D55749606CD1F8D7
:10598000942022F080520243C1F89420590500F17E
:10599000D480012E40F0DF80524B4F4E00229A6699
:1059A000FEF7CCFE074633681A0100F12881226811
:1059B000D30701D5A36B1BB1970714D5E36B93B93C
:1059C000D6F88430D6F8841003F4403301F07061C7
:1059D0000B4361680B43A16843EA8113616943EAA1
:1059E0000173C6F88430560703D5236BB3F5801FC7
:1059F00005D0100720D5636BB3F5800F1CD1364955
:105A0000D1F88430D1F8840003F4403300F0E04052
:105A1000034360680343A06843EA8013206943EAB4
:105A20000063C1F88430D1F88C00A36A20F01F0015
:105A3000013B0343C1F88C3051051BD5236DB3F1F5
:105A4000005F17D124486668D0F88410D0F88430FD
:105A500003F0E0433343A668C1F30141013143EA57
:105A6000861343EA4163E1684908013943EA014387
:105A7000C0F88430120511D52369A2681B0643EAD9
:105A8000821362681343626943EA0273E268520850
:105A9000013A43EA0243104AC2F88430114B0E4FD8
:105AA00001229A66FEF74AFE06463B681B0156D461
:105AB000FEF744FE801B0228F7D908E00126F6E62F
:105AC000FEF73CFEA0EB080002287FF606AF03209D
:105AD00003B0BDE8F08300BF003802400070004012
